{
  "_format": "hh-sol-artifact-1",
  "contractName": "AlienCrosmobaby",
  "sourceName": "contracts/CrosmoBaby.sol",
  "abi": [
    {
      "inputs": [
        {
          "internalType": "string",
          "name": "_initBaseURI",
          "type": "string"
        },
        {
          "internalType": "address",
          "name": "_crosmonaut",
          "type": "address"
        },
        {
          "internalType": "address",
          "name": "_crosmocraft",
          "type": "address"
        }
      ],
      "stateMutability": "nonpayable",
      "type": "constructor"
    },
    {
      "anonymous": false,
      "inputs": [
        {
          "indexed": true,
          "internalType": "address",
          "name": "owner",
          "type": "address"
        },
        {
          "indexed": true,
          "internalType": "address",
          "name": "approved",
          "type": "address"
        },
        {
          "indexed": true,
          "internalType": "uint256",
          "name": "tokenId",
          "type": "uint256"
        }
      ],
      "name": "Approval",
      "type": "event"
    },
    {
      "anonymous": false,
      "inputs": [
        {
          "indexed": true,
          "internalType": "address",
          "name": "owner",
          "type": "address"
        },
        {
          "indexed": true,
          "internalType": "address",
          "name": "operator",
          "type": "address"
        },
        {
          "indexed": false,
          "internalType": "bool",
          "name": "approved",
          "type": "bool"
        }
      ],
      "name": "ApprovalForAll",
      "type": "event"
    },
    {
      "anonymous": false,
      "inputs": [
        {
          "indexed": true,
          "internalType": "address",
          "name": "previousOwner",
          "type": "address"
        },
        {
          "indexed": true,
          "internalType": "address",
          "name": "newOwner",
          "type": "address"
        }
      ],
      "name": "OwnershipTransferred",
      "type": "event"
    },
    {
      "anonymous": false,
      "inputs": [
        {
          "indexed": true,
          "internalType": "address",
          "name": "from",
          "type": "address"
        },
        {
          "indexed": true,
          "internalType": "address",
          "name": "to",
          "type": "address"
        },
        {
          "indexed": true,
          "internalType": "uint256",
          "name": "tokenId",
          "type": "uint256"
        }
      ],
      "name": "Transfer",
      "type": "event"
    },
    {
      "inputs": [],
      "name": "ICrosmocraft",
      "outputs": [
        {
          "internalType": "contract IERC721",
          "name": "",
          "type": "address"
        }
      ],
      "stateMutability": "view",
      "type": "function"
    },
    {
      "inputs": [],
      "name": "ICrosmonaut",
      "outputs": [
        {
          "internalType": "contract IERC721",
          "name": "",
          "type": "address"
        }
      ],
      "stateMutability": "view",
      "type": "function"
    },
    {
      "inputs": [
        {
          "internalType": "address[]",
          "name": "_holders",
          "type": "address[]"
        },
        {
          "internalType": "uint256[]",
          "name": "_counts",
          "type": "uint256[]"
        }
      ],
      "name": "airdropNFTs",
      "outputs": [],
      "stateMutability": "nonpayable",
      "type": "function"
    },
    {
      "inputs": [
        {
          "internalType": "address",
          "name": "to",
          "type": "address"
        },
        {
          "internalType": "uint256",
          "name": "tokenId",
          "type": "uint256"
        }
      ],
      "name": "approve",
      "outputs": [],
      "stateMutability": "nonpayable",
      "type": "function"
    },
    {
      "inputs": [],
      "name": "artistFee",
      "outputs": [
        {
          "internalType": "uint256",
          "name": "",
          "type": "uint256"
        }
      ],
      "stateMutability": "view",
      "type": "function"
    },
    {
      "inputs": [],
      "name": "artistWallet",
      "outputs": [
        {
          "internalType": "address",
          "name": "",
          "type": "address"
        }
      ],
      "stateMutability": "view",
      "type": "function"
    },
    {
      "inputs": [
        {
          "internalType": "address",
          "name": "owner",
          "type": "address"
        }
      ],
      "name": "balanceOf",
      "outputs": [
        {
          "internalType": "uint256",
          "name": "",
          "type": "uint256"
        }
      ],
      "stateMutability": "view",
      "type": "function"
    },
    {
      "inputs": [],
      "name": "baseExtension",
      "outputs": [
        {
          "internalType": "string",
          "name": "",
          "type": "string"
        }
      ],
      "stateMutability": "view",
      "type": "function"
    },
    {
      "inputs": [],
      "name": "cost",
      "outputs": [
        {
          "internalType": "uint256",
          "name": "",
          "type": "uint256"
        }
      ],
      "stateMutability": "view",
      "type": "function"
    },
    {
      "inputs": [],
      "name": "crosmocraftCost",
      "outputs": [
        {
          "internalType": "uint256",
          "name": "",
          "type": "uint256"
        }
      ],
      "stateMutability": "view",
      "type": "function"
    },
    {
      "inputs": [],
      "name": "crosmonautCost",
      "outputs": [
        {
          "internalType": "uint256",
          "name": "",
          "type": "uint256"
        }
      ],
      "stateMutability": "view",
      "type": "function"
    },
    {
      "inputs": [
        {
          "internalType": "uint256",
          "name": "tokenId",
          "type": "uint256"
        }
      ],
      "name": "getApproved",
      "outputs": [
        {
          "internalType": "address",
          "name": "",
          "type": "address"
        }
      ],
      "stateMutability": "view",
      "type": "function"
    },
    {
      "inputs": [
        {
          "internalType": "address",
          "name": "owner",
          "type": "address"
        },
        {
          "internalType": "address",
          "name": "operator",
          "type": "address"
        }
      ],
      "name": "isApprovedForAll",
      "outputs": [
        {
          "internalType": "bool",
          "name": "",
          "type": "bool"
        }
      ],
      "stateMutability": "view",
      "type": "function"
    },
    {
      "inputs": [
        {
          "internalType": "address",
          "name": "_address",
          "type": "address"
        }
      ],
      "name": "isCrosmocraft",
      "outputs": [
        {
          "internalType": "bool",
          "name": "",
          "type": "bool"
        }
      ],
      "stateMutability": "view",
      "type": "function"
    },
    {
      "inputs": [
        {
          "internalType": "address",
          "name": "_address",
          "type": "address"
        }
      ],
      "name": "isCrosmonaut",
      "outputs": [
        {
          "internalType": "bool",
          "name": "",
          "type": "bool"
        }
      ],
      "stateMutability": "view",
      "type": "function"
    },
    {
      "inputs": [],
      "name": "maxSupply",
      "outputs": [
        {
          "internalType": "uint256",
          "name": "",
          "type": "uint256"
        }
      ],
      "stateMutability": "view",
      "type": "function"
    },
    {
      "inputs": [
        {
          "internalType": "uint256",
          "name": "amount",
          "type": "uint256"
        }
      ],
      "name": "mint",
      "outputs": [],
      "stateMutability": "payable",
      "type": "function"
    },
    {
      "inputs": [
        {
          "internalType": "address",
          "name": "_minter",
          "type": "address"
        }
      ],
      "name": "mintCost",
      "outputs": [
        {
          "internalType": "uint256",
          "name": "",
          "type": "uint256"
        }
      ],
      "stateMutability": "view",
      "type": "function"
    },
    {
      "inputs": [],
      "name": "name",
      "outputs": [
        {
          "internalType": "string",
          "name": "",
          "type": "string"
        }
      ],
      "stateMutability": "view",
      "type": "function"
    },
    {
      "inputs": [],
      "name": "owner",
      "outputs": [
        {
          "internalType": "address",
          "name": "",
          "type": "address"
        }
      ],
      "stateMutability": "view",
      "type": "function"
    },
    {
      "inputs": [
        {
          "internalType": "uint256",
          "name": "tokenId",
          "type": "uint256"
        }
      ],
      "name": "ownerOf",
      "outputs": [
        {
          "internalType": "address",
          "name": "",
          "type": "address"
        }
      ],
      "stateMutability": "view",
      "type": "function"
    },
    {
      "inputs": [
        {
          "internalType": "bool",
          "name": "_state",
          "type": "bool"
        }
      ],
      "name": "pause",
      "outputs": [],
      "stateMutability": "nonpayable",
      "type": "function"
    },
    {
      "inputs": [],
      "name": "paused",
      "outputs": [
        {
          "internalType": "bool",
          "name": "",
          "type": "bool"
        }
      ],
      "stateMutability": "view",
      "type": "function"
    },
    {
      "inputs": [],
      "name": "renounceOwnership",
      "outputs": [],
      "stateMutability": "nonpayable",
      "type": "function"
    },
    {
      "inputs": [
        {
          "internalType": "uint256",
          "name": "_tokenId",
          "type": "uint256"
        },
        {
          "internalType": "uint256",
          "name": "_salePrice",
          "type": "uint256"
        }
      ],
      "name": "royaltyInfo",
      "outputs": [
        {
          "internalType": "address",
          "name": "",
          "type": "address"
        },
        {
          "internalType": "uint256",
          "name": "",
          "type": "uint256"
        }
      ],
      "stateMutability": "view",
      "type": "function"
    },
    {
      "inputs": [
        {
          "internalType": "address",
          "name": "from",
          "type": "address"
        },
        {
          "internalType": "address",
          "name": "to",
          "type": "address"
        },
        {
          "internalType": "uint256",
          "name": "tokenId",
          "type": "uint256"
        }
      ],
      "name": "safeTransferFrom",
      "outputs": [],
      "stateMutability": "nonpayable",
      "type": "function"
    },
    {
      "inputs": [
        {
          "internalType": "address",
          "name": "from",
          "type": "address"
        },
        {
          "internalType": "address",
          "name": "to",
          "type": "address"
        },
        {
          "internalType": "uint256",
          "name": "tokenId",
          "type": "uint256"
        },
        {
          "internalType": "bytes",
          "name": "_data",
          "type": "bytes"
        }
      ],
      "name": "safeTransferFrom",
      "outputs": [],
      "stateMutability": "nonpayable",
      "type": "function"
    },
    {
      "inputs": [],
      "name": "saleState",
      "outputs": [
        {
          "internalType": "uint256",
          "name": "",
          "type": "uint256"
        }
      ],
      "stateMutability": "view",
      "type": "function"
    },
    {
      "inputs": [
        {
          "internalType": "address[]",
          "name": "_holders",
          "type": "address[]"
        },
        {
          "internalType": "uint256[]",
          "name": "_counts",
          "type": "uint256[]"
        }
      ],
      "name": "setAirDropCounts",
      "outputs": [],
      "stateMutability": "nonpayable",
      "type": "function"
    },
    {
      "inputs": [
        {
          "internalType": "address",
          "name": "operator",
          "type": "address"
        },
        {
          "internalType": "bool",
          "name": "approved",
          "type": "bool"
        }
      ],
      "name": "setApprovalForAll",
      "outputs": [],
      "stateMutability": "nonpayable",
      "type": "function"
    },
    {
      "inputs": [
        {
          "internalType": "address",
          "name": "_account",
          "type": "address"
        }
      ],
      "name": "setArtistWallet",
      "outputs": [],
      "stateMutability": "nonpayable",
      "type": "function"
    },
    {
      "inputs": [
        {
          "internalType": "string",
          "name": "_newBaseExtension",
          "type": "string"
        }
      ],
      "name": "setBaseExtension",
      "outputs": [],
      "stateMutability": "nonpayable",
      "type": "function"
    },
    {
      "inputs": [
        {
          "internalType": "string",
          "name": "_newBaseURI",
          "type": "string"
        }
      ],
      "name": "setBaseURI",
      "outputs": [],
      "stateMutability": "nonpayable",
      "type": "function"
    },
    {
      "inputs": [
        {
          "internalType": "uint256",
          "name": "_newCost",
          "type": "uint256"
        }
      ],
      "name": "setCost",
      "outputs": [],
      "stateMutability": "nonpayable",
      "type": "function"
    },
    {
      "inputs": [
        {
          "internalType": "uint256",
          "name": "_newCrosmocraftCost",
          "type": "uint256"
        }
      ],
      "name": "setCrosmocraftCost",
      "outputs": [],
      "stateMutability": "nonpayable",
      "type": "function"
    },
    {
      "inputs": [
        {
          "internalType": "uint256",
          "name": "_newCrosmonautCost",
          "type": "uint256"
        }
      ],
      "name": "setCrosmonautCost",
      "outputs": [],
      "stateMutability": "nonpayable",
      "type": "function"
    },
    {
      "inputs": [],
      "name": "startPresale",
      "outputs": [],
      "stateMutability": "nonpayable",
      "type": "function"
    },
    {
      "inputs": [],
      "name": "startPublicSale",
      "outputs": [],
      "stateMutability": "nonpayable",
      "type": "function"
    },
    {
      "inputs": [
        {
          "internalType": "bytes4",
          "name": "interfaceId",
          "type": "bytes4"
        }
      ],
      "name": "supportsInterface",
      "outputs": [
        {
          "internalType": "bool",
          "name": "",
          "type": "bool"
        }
      ],
      "stateMutability": "view",
      "type": "function"
    },
    {
      "inputs": [],
      "name": "symbol",
      "outputs": [
        {
          "internalType": "string",
          "name": "",
          "type": "string"
        }
      ],
      "stateMutability": "view",
      "type": "function"
    },
    {
      "inputs": [],
      "name": "teamFee",
      "outputs": [
        {
          "internalType": "uint256",
          "name": "",
          "type": "uint256"
        }
      ],
      "stateMutability": "view",
      "type": "function"
    },
    {
      "inputs": [
        {
          "internalType": "uint256",
          "name": "from",
          "type": "uint256"
        },
        {
          "internalType": "uint256",
          "name": "to",
          "type": "uint256"
        }
      ],
      "name": "teamMint",
      "outputs": [],
      "stateMutability": "nonpayable",
      "type": "function"
    },
    {
      "inputs": [],
      "name": "teamWallet",
      "outputs": [
        {
          "internalType": "address",
          "name": "",
          "type": "address"
        }
      ],
      "stateMutability": "view",
      "type": "function"
    },
    {
      "inputs": [
        {
          "internalType": "uint256",
          "name": "index",
          "type": "uint256"
        }
      ],
      "name": "tokenByIndex",
      "outputs": [
        {
          "internalType": "uint256",
          "name": "",
          "type": "uint256"
        }
      ],
      "stateMutability": "view",
      "type": "function"
    },
    {
      "inputs": [
        {
          "internalType": "address",
          "name": "owner",
          "type": "address"
        },
        {
          "internalType": "uint256",
          "name": "index",
          "type": "uint256"
        }
      ],
      "name": "tokenOfOwnerByIndex",
      "outputs": [
        {
          "internalType": "uint256",
          "name": "",
          "type": "uint256"
        }
      ],
      "stateMutability": "view",
      "type": "function"
    },
    {
      "inputs": [
        {
          "internalType": "uint256",
          "name": "tokenId",
          "type": "uint256"
        }
      ],
      "name": "tokenURI",
      "outputs": [
        {
          "internalType": "string",
          "name": "",
          "type": "string"
        }
      ],
      "stateMutability": "view",
      "type": "function"
    },
    {
      "inputs": [],
      "name": "totalSupply",
      "outputs": [
        {
          "internalType": "uint256",
          "name": "",
          "type": "uint256"
        }
      ],
      "stateMutability": "view",
      "type": "function"
    },
    {
      "inputs": [
        {
          "internalType": "address",
          "name": "from",
          "type": "address"
        },
        {
          "internalType": "address",
          "name": "to",
          "type": "address"
        },
        {
          "internalType": "uint256",
          "name": "tokenId",
          "type": "uint256"
        }
      ],
      "name": "transferFrom",
      "outputs": [],
      "stateMutability": "nonpayable",
      "type": "function"
    },
    {
      "inputs": [
        {
          "internalType": "address",
          "name": "newOwner",
          "type": "address"
        }
      ],
      "name": "transferOwnership",
      "outputs": [],
      "stateMutability": "nonpayable",
      "type": "function"
    },
    {
      "inputs": [
        {
          "internalType": "address",
          "name": "_owner",
          "type": "address"
        }
      ],
      "name": "walletOfOwner",
      "outputs": [
        {
          "internalType": "uint256[]",
          "name": "",
          "type": "uint256[]"
        }
      ],
      "stateMutability": "view",
      "type": "function"
    },
    {
      "inputs": [],
      "name": "withdraw",
      "outputs": [],
      "stateMutability": "nonpayable",
      "type": "function"
    }
  ],
  "bytecode": "0x6000600e5560c06040526005608090815264173539b7b760d91b60a0526010906200002b908262000325565b50680813ca56906d3400006011556806fe3c1087596400006012556805e8adca7e45940000601355610208805460ff1916905561020b80546001600160a01b031990811673e1e4f26c0a7fe05e538197317a616bc9157c8d531790915561039861020c5561020d8054909116735bc4ccedb9440c5212c94b822f363ca130010283179055605061020e55348015620000c257600080fd5b506040516200360538038062003605833981016040819052620000e5916200040e565b6040518060400160405280601481526020017f334420416c69656e2043726f736d6f62616279730000000000000000000000008152506040518060400160405280600381526020016220a1a160e91b815250816000908162000148919062000325565b50600162000157828262000325565b505050620001746200016e620001b960201b60201c565b620001bd565b6001600b5562000184836200020f565b61020f80546001600160a01b039384166001600160a01b03199182161790915561021080549290931691161790555062000508565b3390565b600a80546001600160a01b038381166001600160a01b0319831681179093556040519116919082907f8be0079c531659141344cd1fd0a4f28419497f9722a3daafe3b4186f6b6457e090600090a35050565b600a546001600160a01b031633146200026e5760405162461bcd60e51b815260206004820181905260248201527f4f776e61626c653a2063616c6c6572206973206e6f7420746865206f776e6572604482015260640160405180910390fd5b600f6200027c828262000325565b5050565b634e487b7160e01b600052604160045260246000fd5b600181811c90821680620002ab57607f821691505b602082108103620002cc57634e487b7160e01b600052602260045260246000fd5b50919050565b601f8211156200032057600081815260208120601f850160051c81016020861015620002fb5750805b601f850160051c820191505b818110156200031c5782815560010162000307565b5050505b505050565b81516001600160401b0381111562000341576200034162000280565b620003598162000352845462000296565b84620002d2565b602080601f831160018114620003915760008415620003785750858301515b600019600386901b1c1916600185901b1785556200031c565b600085815260208120601f198616915b82811015620003c257888601518255948401946001909101908401620003a1565b5085821015620003e15787850151600019600388901b60f8161c191681555b5050505050600190811b01905550565b80516001600160a01b03811681146200040957600080fd5b919050565b6000806000606084860312156200042457600080fd5b83516001600160401b03808211156200043c57600080fd5b818601915086601f8301126200045157600080fd5b81518181111562000466576200046662000280565b604051601f8201601f19908116603f0116810190838211818310171562000491576200049162000280565b81604052828152602093508984848701011115620004ae57600080fd5b600091505b82821015620004d25784820184015181830185015290830190620004b3565b6000848483010152809750505050620004ed818701620003f1565b93505050620004ff60408501620003f1565b90509250925092565b6130ed80620005186000396000f3fe6080604052600436106102e45760003560e01c80636352211e11610190578063b6cad81b116100dc578063d7c94efd11610095578063e213b5f61161006f578063e213b5f614610893578063e985e9c5146108b3578063f2fde38b146108fc578063fce57fd91461091c57600080fd5b8063d7c94efd1461083b578063da3ef23f14610852578063dcfb285f1461087257600080fd5b8063b6cad81b1461079a578063b88d4fde146107b0578063c6682862146107d0578063c87b56dd146107e5578063cf1d22c714610805578063d5abeb011461082557600080fd5b806397f700e811610149578063a22cb46511610123578063a22cb46514610722578063a3342fba14610742578063a7234b1214610763578063b25332ae1461078357600080fd5b806397f700e8146106cf5780639f6d7bdc146106ef578063a0712d681461070f57600080fd5b80636352211e1461062757806369b5b29c1461064757806370a0823114610667578063715018a6146106875780638da5cb5b1461069c57806395d89b41146106ba57600080fd5b80632acc659e1161024f57806344a0d68a116102085780635924f660116101e25780635924f660146105b457806359927044146105d55780635c975abb146105f6578063603f4d521461061157600080fd5b806344a0d68a146105545780634f6ccce71461057457806355f804b31461059457600080fd5b80632acc659e146104925780632d35b795146104b25780632f745c59146104d25780633ccfd60b146104f257806342842e0e14610507578063438b63001461052757600080fd5b80630c1c972a116102a15780630c1c972a146103cf5780630ea7a6af146103e457806313faede61461040857806318160ddd1461041e57806323b872dd146104335780632a55205a1461045357600080fd5b806301ffc9a7146102e957806302329a291461031e57806304c98b2b1461034057806306fdde0314610355578063081812fc14610377578063095ea7b3146103af575b600080fd5b3480156102f557600080fd5b506103096103043660046127d7565b61093c565b60405190151581526020015b60405180910390f35b34801561032a57600080fd5b5061033e610339366004612809565b61094d565b005b34801561034c57600080fd5b5061033e610994565b34801561036157600080fd5b5061036a6109c5565b6040516103159190612874565b34801561038357600080fd5b50610397610392366004612887565b610a57565b6040516001600160a01b039091168152602001610315565b3480156103bb57600080fd5b5061033e6103ca3660046128b7565b610aec565b3480156103db57600080fd5b5061033e610c01565b3480156103f057600080fd5b506103fa60125481565b604051908152602001610315565b34801561041457600080fd5b506103fa60115481565b34801561042a57600080fd5b506008546103fa565b34801561043f57600080fd5b5061033e61044e3660046128e1565b610c32565b34801561045f57600080fd5b5061047361046e36600461291d565b610c63565b604080516001600160a01b039093168352602083019190915201610315565b34801561049e57600080fd5b506103fa6104ad36600461293f565b610d0f565b3480156104be57600080fd5b5061033e6104cd366004612a30565b610d4d565b3480156104de57600080fd5b506103fa6104ed3660046128b7565b610e60565b3480156104fe57600080fd5b5061033e610ef6565b34801561051357600080fd5b5061033e6105223660046128e1565b611052565b34801561053357600080fd5b5061054761054236600461293f565b61106d565b6040516103159190612af0565b34801561056057600080fd5b5061033e61056f366004612887565b61110f565b34801561058057600080fd5b506103fa61058f366004612887565b61113e565b3480156105a057600080fd5b5061033e6105af366004612b8c565b6111d1565b3480156105c057600080fd5b5061021054610397906001600160a01b031681565b3480156105e157600080fd5b5061020b54610397906001600160a01b031681565b34801561060257600080fd5b50610208546103099060ff1681565b34801561061d57600080fd5b506103fa600e5481565b34801561063357600080fd5b50610397610642366004612887565b61120b565b34801561065357600080fd5b5061033e61066236600461291d565b611282565b34801561067357600080fd5b506103fa61068236600461293f565b611323565b34801561069357600080fd5b5061033e6113aa565b3480156106a857600080fd5b50600a546001600160a01b0316610397565b3480156106c657600080fd5b5061036a6113e0565b3480156106db57600080fd5b5061033e6106ea366004612887565b6113ef565b3480156106fb57600080fd5b5061030961070a36600461293f565b61141e565b61033e61071d366004612887565b611499565b34801561072e57600080fd5b5061033e61073d366004612bd5565b611742565b34801561074e57600080fd5b5061020d54610397906001600160a01b031681565b34801561076f57600080fd5b5061030961077e36600461293f565b61174d565b34801561078f57600080fd5b506103fa61020e5481565b3480156107a657600080fd5b506103fa60135481565b3480156107bc57600080fd5b5061033e6107cb366004612c08565b611784565b3480156107dc57600080fd5b5061036a6117bc565b3480156107f157600080fd5b5061036a610800366004612887565b61184a565b34801561081157600080fd5b5061033e610820366004612887565b611928565b34801561083157600080fd5b506103fa6101f481565b34801561084757600080fd5b506103fa61020c5481565b34801561085e57600080fd5b5061033e61086d366004612b8c565b611957565b34801561087e57600080fd5b5061020f54610397906001600160a01b031681565b34801561089f57600080fd5b5061033e6108ae366004612a30565b61198d565b3480156108bf57600080fd5b506103096108ce366004612c84565b6001600160a01b03918216600090815260056020908152604080832093909416825291909152205460ff1690565b34801561090857600080fd5b5061033e61091736600461293f565b611ab0565b34801561092857600080fd5b5061033e61093736600461293f565b611b4b565b600061094782611b98565b92915050565b600a546001600160a01b031633146109805760405162461bcd60e51b815260040161097790612cae565b60405180910390fd5b610208805460ff1916911515919091179055565b600a546001600160a01b031633146109be5760405162461bcd60e51b815260040161097790612cae565b6001600e55565b6060600080546109d490612ce3565b80601f0160208091040260200160405190810160405280929190818152602001828054610a0090612ce3565b8015610a4d5780601f10610a2257610100808354040283529160200191610a4d565b820191906000526020600020905b815481529060010190602001808311610a3057829003601f168201915b5050505050905090565b6000818152600260205260408120546001600160a01b0316610ad05760405162461bcd60e51b815260206004820152602c60248201527f4552433732313a20617070726f76656420717565727920666f72206e6f6e657860448201526b34b9ba32b73a103a37b5b2b760a11b6064820152608401610977565b506000908152600460205260409020546001600160a01b031690565b6000610af78261120b565b9050806001600160a01b0316836001600160a01b031603610b645760405162461bcd60e51b815260206004820152602160248201527f4552433732313a20617070726f76616c20746f2063757272656e74206f776e656044820152603960f91b6064820152608401610977565b336001600160a01b0382161480610b805750610b8081336108ce565b610bf25760405162461bcd60e51b815260206004820152603860248201527f4552433732313a20617070726f76652063616c6c6572206973206e6f74206f7760448201527f6e6572206e6f7220617070726f76656420666f7220616c6c00000000000000006064820152608401610977565b610bfc8383611bbd565b505050565b600a546001600160a01b03163314610c2b5760405162461bcd60e51b815260040161097790612cae565b6002600e55565b610c3c3382611c2b565b610c585760405162461bcd60e51b815260040161097790612d1d565b610bfc838383611d22565b6000828152600d602090815260408083208151808301909252546001600160a01b038116808352600160a01b9091046001600160601b0316928201929092528291610cd8575060408051808201909152600c546001600160a01b0381168252600160a01b90046001600160601b031660208201525b602081015160009061271090610cf7906001600160601b031687612d84565b610d019190612db1565b915196919550909350505050565b6000610d1a8261174d565b1515600103610d2b57505060135490565b610d348261141e565b1515600103610d4557505060125490565b505060115490565b600a546001600160a01b03163314610d775760405162461bcd60e51b815260040161097790612cae565b8051825114610dbb5760405162461bcd60e51b815260206004820152601060248201526f24b7383aba102230ba309032b93937b960811b6044820152606401610977565b60005b8251811015610bfc57610209838281518110610ddc57610ddc612dc5565b60209081029190910181015182546001810184556000938452919092200180546001600160a01b0319166001600160a01b03909216919091179055815161020a90839083908110610e2f57610e2f612dc5565b6020908102919091018101518254600181018455600093845291909220015580610e5881612ddb565b915050610dbe565b6000610e6b83611323565b8210610ecd5760405162461bcd60e51b815260206004820152602b60248201527f455243373231456e756d657261626c653a206f776e657220696e646578206f7560448201526a74206f6620626f756e647360a81b6064820152608401610977565b506001600160a01b03919091166000908152600660209081526040808320938352929052205490565b61020e5447906000906103e890610f0d9084612d84565b610f179190612db1565b61020d546040519192506000916001600160a01b039091169083908381818185875af1925050503d8060008114610f6a576040519150601f19603f3d011682016040523d82523d6000602084013e610f6f565b606091505b50508091505080610fb75760405162461bcd60e51b815260206004820152601260248201527114d95b991a5b99c818dc9bc819985a5b195960721b6044820152606401610977565b61020b546040516001600160a01b03909116904790600081818185875af1925050503d8060008114611005576040519150601f19603f3d011682016040523d82523d6000602084013e61100a565b606091505b50508091505080610bfc5760405162461bcd60e51b815260206004820152601260248201527114d95b991a5b99c818dc9bc819985a5b195960721b6044820152606401610977565b610bfc83838360405180602001604052806000815250611784565b6060600061107a83611323565b905060008167ffffffffffffffff8111156110975761109761295a565b6040519080825280602002602001820160405280156110c0578160200160208202803683370190505b50905060005b82811015611107576110d88582610e60565b8282815181106110ea576110ea612dc5565b6020908102919091010152806110ff81612ddb565b9150506110c6565b509392505050565b600a546001600160a01b031633146111395760405162461bcd60e51b815260040161097790612cae565b601155565b600061114960085490565b82106111ac5760405162461bcd60e51b815260206004820152602c60248201527f455243373231456e756d657261626c653a20676c6f62616c20696e646578206f60448201526b7574206f6620626f756e647360a01b6064820152608401610977565b600882815481106111bf576111bf612dc5565b90600052602060002001549050919050565b600a546001600160a01b031633146111fb5760405162461bcd60e51b815260040161097790612cae565b600f6112078282612e42565b5050565b6000818152600260205260408120546001600160a01b0316806109475760405162461bcd60e51b815260206004820152602960248201527f4552433732313a206f776e657220717565727920666f72206e6f6e657869737460448201526832b73a103a37b5b2b760b91b6064820152608401610977565b600a546001600160a01b031633146112ac5760405162461bcd60e51b815260040161097790612cae565b815b818111610bfc576101f48111156112fa5760405162461bcd60e51b815260206004820152601060248201526f125b9d985b1a59081d1bdad95b88125160821b6044820152606401610977565b61020b54611311906001600160a01b031682611ec9565b8061131b81612ddb565b9150506112ae565b60006001600160a01b03821661138e5760405162461bcd60e51b815260206004820152602a60248201527f4552433732313a2062616c616e636520717565727920666f7220746865207a65604482015269726f206164647265737360b01b6064820152608401610977565b506001600160a01b031660009081526003602052604090205490565b600a546001600160a01b031633146113d45760405162461bcd60e51b815260040161097790612cae565b6113de6000611ee3565b565b6060600180546109d490612ce3565b600a546001600160a01b031633146114195760405162461bcd60e51b815260040161097790612cae565b601355565b610210546040516370a0823160e01b81526001600160a01b03838116600483015260009283929116906370a08231906024015b602060405180830381865afa15801561146e573d6000803e3d6000fd5b505050506040513d601f19601f820116820180604052508101906114929190612f02565b1192915050565b6002600b54036114eb5760405162461bcd60e51b815260206004820152601f60248201527f5265656e7472616e637947756172643a207265656e7472616e742063616c6c006044820152606401610977565b6002600b556102085460ff161561152d5760405162461bcd60e51b81526020600482015260066024820152651c185d5cd95960d21b6044820152606401610977565b6000600e54116115755760405162461bcd60e51b815260206004820152601360248201527214d85b19481a5cc81b9bdd081cdd185c9d1959606a1b6044820152606401610977565b600e546001036115e3576115883361141e565b8061159757506115973361174d565b6115e35760405162461bcd60e51b815260206004820152601c60248201527f4e6f2043726f736d6f6372616674206f722043726f736d6f6e617574000000006044820152606401610977565b6000811161162a5760405162461bcd60e51b8152602060048201526014602482015273616d6f756e742063616e2774206265207a65726f60601b6044820152606401610977565b600061163560085490565b90506101f46116448383612f1b565b11156116885760405162461bcd60e51b815260206004820152601360248201527213585e081cdd5c1c1b1e48195e18d959591959606a1b6044820152606401610977565b6011546116943361141e565b1561169e57506012545b6116a73361174d565b156116b157506013545b6116bb8382612d84565b3410156116ff5760405162461bcd60e51b8152602060048201526012602482015271696e73756666696369656e742066756e647360701b6044820152606401610977565b60005b83811015611737576117253361172061171b8487612f1b565b611f35565b611ec9565b8061172f81612ddb565b915050611702565b50506001600b555050565b611207338383612071565b61020f546040516370a0823160e01b81526001600160a01b03838116600483015260009283929116906370a0823190602401611451565b61178e3383611c2b565b6117aa5760405162461bcd60e51b815260040161097790612d1d565b6117b68484848461213f565b50505050565b601080546117c990612ce3565b80601f01602080910402602001604051908101604052809291908181526020018280546117f590612ce3565b80156118425780601f1061181757610100808354040283529160200191611842565b820191906000526020600020905b81548152906001019060200180831161182557829003601f168201915b505050505081565b6000818152600260205260409020546060906001600160a01b03166118c95760405162461bcd60e51b815260206004820152602f60248201527f4552433732314d657461646174613a2055524920717565727920666f72206e6f60448201526e3732bc34b9ba32b73a103a37b5b2b760891b6064820152608401610977565b60006118d3612172565b905060008151116118f35760405180602001604052806000815250611921565b806118fd84612181565b601060405160200161191193929190612f2e565b6040516020818303038152906040525b9392505050565b600a546001600160a01b031633146119525760405162461bcd60e51b815260040161097790612cae565b601255565b600a546001600160a01b031633146119815760405162461bcd60e51b815260040161097790612cae565b60106112078282612e42565b600a546001600160a01b031633146119b75760405162461bcd60e51b815260040161097790612cae565b80518251146119fb5760405162461bcd60e51b815260206004820152601060248201526f24b7383aba102230ba309032b93937b960811b6044820152606401610977565b6000611a0660085490565b905060005b83518110156117b65760005b838281518110611a2957611a29612dc5565b6020026020010151811015611a7657611a64858381518110611a4d57611a4d612dc5565b6020026020010151611720838661171b9190612f1b565b80611a6e81612ddb565b915050611a17565b50828181518110611a8957611a89612dc5565b602002602001015182611a9c9190612f1b565b915080611aa881612ddb565b915050611a0b565b600a546001600160a01b03163314611ada5760405162461bcd60e51b815260040161097790612cae565b6001600160a01b038116611b3f5760405162461bcd60e51b815260206004820152602660248201527f4f776e61626c653a206e6577206f776e657220697320746865207a65726f206160448201526564647265737360d01b6064820152608401610977565b611b4881611ee3565b50565b600a546001600160a01b03163314611b755760405162461bcd60e51b815260040161097790612cae565b61020d80546001600160a01b0319166001600160a01b0392909216919091179055565b60006001600160e01b0319821663152a902d60e11b1480610947575061094782612282565b600081815260046020526040902080546001600160a01b0319166001600160a01b0384169081179091558190611bf28261120b565b6001600160a01b03167f8c5be1e5ebec7d5bd14f71427d1e84f3dd0314c0f7b2291e5b200ac8c7c3b92560405160405180910390a45050565b6000818152600260205260408120546001600160a01b0316611ca45760405162461bcd60e51b815260206004820152602c60248201527f4552433732313a206f70657261746f7220717565727920666f72206e6f6e657860448201526b34b9ba32b73a103a37b5b2b760a11b6064820152608401610977565b6000611caf8361120b565b9050806001600160a01b0316846001600160a01b03161480611cea5750836001600160a01b0316611cdf84610a57565b6001600160a01b0316145b80611d1a57506001600160a01b0380821660009081526005602090815260408083209388168352929052205460ff165b949350505050565b826001600160a01b0316611d358261120b565b6001600160a01b031614611d995760405162461bcd60e51b815260206004820152602560248201527f4552433732313a207472616e736665722066726f6d20696e636f72726563742060448201526437bbb732b960d91b6064820152608401610977565b6001600160a01b038216611dfb5760405162461bcd60e51b8152602060048201526024808201527f4552433732313a207472616e7366657220746f20746865207a65726f206164646044820152637265737360e01b6064820152608401610977565b611e068383836122a7565b611e11600082611bbd565b6001600160a01b0383166000908152600360205260408120805460019290611e3a908490612fce565b90915550506001600160a01b0382166000908152600360205260408120805460019290611e68908490612f1b565b909155505060008181526002602052604080822080546001600160a01b0319166001600160a01b0386811691821790925591518493918716917fddf252ad1be2c89b69c2b068fc378daa952ba7f163c4a11628f55a4df523b3ef91a4505050565b61120782826040518060200160405280600081525061235f565b600a80546001600160a01b038381166001600160a01b0319831681179093556040519116919082907f8be0079c531659141344cd1fd0a4f28419497f9722a3daafe3b4186f6b6457e090600090a35050565b600080611f44836101f4612fce565b6040516bffffffffffffffffffffffff193360601b1660208201524460348201524260548201526074810182905290915060009082906094016040516020818303038152906040528051906020012060001c611fa09190612fe1565b9050600092506014816101f48110611fba57611fba612dc5565b015415611fde576014816101f48110611fd557611fd5612dc5565b01549250611fe2565b8092505b6014611fef600184612fce565b6101f4811061200057612000612dc5565b015460000361202f57612014600183612fce565b6014826101f4811061202857612028612dc5565b0155612066565b601461203c600184612fce565b6101f4811061204d5761204d612dc5565b01546014826101f4811061206357612063612dc5565b01555b611d1a600184612f1b565b816001600160a01b0316836001600160a01b0316036120d25760405162461bcd60e51b815260206004820152601960248201527f4552433732313a20617070726f766520746f2063616c6c6572000000000000006044820152606401610977565b6001600160a01b03838116600081815260056020908152604080832094871680845294825291829020805460ff191686151590811790915591519182527f17307eab39ab6107e8899845ad3d59bd9653f200f220920489ca2b5937696c31910160405180910390a3505050565b61214a848484611d22565b61215684848484612392565b6117b65760405162461bcd60e51b815260040161097790612ff5565b6060600f80546109d490612ce3565b6060816000036121a85750506040805180820190915260018152600360fc1b602082015290565b8160005b81156121d257806121bc81612ddb565b91506121cb9050600a83612db1565b91506121ac565b60008167ffffffffffffffff8111156121ed576121ed61295a565b6040519080825280601f01601f191660200182016040528015612217576020820181803683370190505b5090505b8415611d1a5761222c600183612fce565b9150612239600a86612fe1565b612244906030612f1b565b60f81b81838151811061225957612259612dc5565b60200101906001600160f81b031916908160001a90535061227b600a86612db1565b945061221b565b60006001600160e01b0319821663780e9d6360e01b1480610947575061094782612493565b6001600160a01b038316612302576122fd81600880546000838152600960205260408120829055600182018355919091527ff3f7a9fe364faab93b216da50a3214154f22a0a2b415b23a84c8169e8b636ee30155565b612325565b816001600160a01b0316836001600160a01b0316146123255761232583826124e3565b6001600160a01b03821661233c57610bfc81612580565b826001600160a01b0316826001600160a01b031614610bfc57610bfc828261262f565b6123698383612673565b6123766000848484612392565b610bfc5760405162461bcd60e51b815260040161097790612ff5565b60006001600160a01b0384163b1561248857604051630a85bd0160e11b81526001600160a01b0385169063150b7a02906123d6903390899088908890600401613047565b6020604051808303816000875af1925050508015612411575060408051601f3d908101601f1916820190925261240e91810190613084565b60015b61246e573d80801561243f576040519150601f19603f3d011682016040523d82523d6000602084013e612444565b606091505b5080516000036124665760405162461bcd60e51b815260040161097790612ff5565b805181602001fd5b6001600160e01b031916630a85bd0160e11b149050611d1a565b506001949350505050565b60006001600160e01b031982166380ac58cd60e01b14806124c457506001600160e01b03198216635b5e139f60e01b145b8061094757506301ffc9a760e01b6001600160e01b0319831614610947565b600060016124f084611323565b6124fa9190612fce565b60008381526007602052604090205490915080821461254d576001600160a01b03841660009081526006602090815260408083208584528252808320548484528184208190558352600790915290208190555b5060009182526007602090815260408084208490556001600160a01b039094168352600681528383209183525290812055565b60085460009061259290600190612fce565b600083815260096020526040812054600880549394509092849081106125ba576125ba612dc5565b9060005260206000200154905080600883815481106125db576125db612dc5565b6000918252602080832090910192909255828152600990915260408082208490558582528120556008805480612613576126136130a1565b6001900381819060005260206000200160009055905550505050565b600061263a83611323565b6001600160a01b039093166000908152600660209081526040808320868452825280832085905593825260079052919091209190915550565b6001600160a01b0382166126c95760405162461bcd60e51b815260206004820181905260248201527f4552433732313a206d696e7420746f20746865207a65726f20616464726573736044820152606401610977565b6000818152600260205260409020546001600160a01b03161561272e5760405162461bcd60e51b815260206004820152601c60248201527f4552433732313a20746f6b656e20616c7265616479206d696e746564000000006044820152606401610977565b61273a600083836122a7565b6001600160a01b0382166000908152600360205260408120805460019290612763908490612f1b565b909155505060008181526002602052604080822080546001600160a01b0319166001600160a01b03861690811790915590518392907fddf252ad1be2c89b69c2b068fc378daa952ba7f163c4a11628f55a4df523b3ef908290a45050565b6001600160e01b031981168114611b4857600080fd5b6000602082840312156127e957600080fd5b8135611921816127c1565b8035801515811461280457600080fd5b919050565b60006020828403121561281b57600080fd5b611921826127f4565b60005b8381101561283f578181015183820152602001612827565b50506000910152565b60008151808452612860816020860160208601612824565b601f01601f19169290920160200192915050565b6020815260006119216020830184612848565b60006020828403121561289957600080fd5b5035919050565b80356001600160a01b038116811461280457600080fd5b600080604083850312156128ca57600080fd5b6128d3836128a0565b946020939093013593505050565b6000806000606084860312156128f657600080fd5b6128ff846128a0565b925061290d602085016128a0565b9150604084013590509250925092565b6000806040838503121561293057600080fd5b50508035926020909101359150565b60006020828403121561295157600080fd5b611921826128a0565b634e487b7160e01b600052604160045260246000fd5b604051601f8201601f1916810167ffffffffffffffff811182821017156129995761299961295a565b604052919050565b600067ffffffffffffffff8211156129bb576129bb61295a565b5060051b60200190565b600082601f8301126129d657600080fd5b813560206129eb6129e6836129a1565b612970565b82815260059290921b84018101918181019086841115612a0a57600080fd5b8286015b84811015612a255780358352918301918301612a0e565b509695505050505050565b60008060408385031215612a4357600080fd5b823567ffffffffffffffff80821115612a5b57600080fd5b818501915085601f830112612a6f57600080fd5b81356020612a7f6129e6836129a1565b82815260059290921b84018101918181019089841115612a9e57600080fd5b948201945b83861015612ac357612ab4866128a0565b82529482019490820190612aa3565b96505086013592505080821115612ad957600080fd5b50612ae6858286016129c5565b9150509250929050565b6020808252825182820181905260009190848201906040850190845b81811015612b2857835183529284019291840191600101612b0c565b50909695505050505050565b600067ffffffffffffffff831115612b4e57612b4e61295a565b612b61601f8401601f1916602001612970565b9050828152838383011115612b7557600080fd5b828260208301376000602084830101529392505050565b600060208284031215612b9e57600080fd5b813567ffffffffffffffff811115612bb557600080fd5b8201601f81018413612bc657600080fd5b611d1a84823560208401612b34565b60008060408385031215612be857600080fd5b612bf1836128a0565b9150612bff602084016127f4565b90509250929050565b60008060008060808587031215612c1e57600080fd5b612c27856128a0565b9350612c35602086016128a0565b925060408501359150606085013567ffffffffffffffff811115612c5857600080fd5b8501601f81018713612c6957600080fd5b612c7887823560208401612b34565b91505092959194509250565b60008060408385031215612c9757600080fd5b612ca0836128a0565b9150612bff602084016128a0565b6020808252818101527f4f776e61626c653a2063616c6c6572206973206e6f7420746865206f776e6572604082015260600190565b600181811c90821680612cf757607f821691505b602082108103612d1757634e487b7160e01b600052602260045260246000fd5b50919050565b60208082526031908201527f4552433732313a207472616e736665722063616c6c6572206973206e6f74206f6040820152701ddb995c881b9bdc88185c1c1c9bdd9959607a1b606082015260800190565b634e487b7160e01b600052601160045260246000fd5b808202811582820484141761094757610947612d6e565b634e487b7160e01b600052601260045260246000fd5b600082612dc057612dc0612d9b565b500490565b634e487b7160e01b600052603260045260246000fd5b600060018201612ded57612ded612d6e565b5060010190565b601f821115610bfc57600081815260208120601f850160051c81016020861015612e1b5750805b601f850160051c820191505b81811015612e3a57828155600101612e27565b505050505050565b815167ffffffffffffffff811115612e5c57612e5c61295a565b612e7081612e6a8454612ce3565b84612df4565b602080601f831160018114612ea55760008415612e8d5750858301515b600019600386901b1c1916600185901b178555612e3a565b600085815260208120601f198616915b82811015612ed457888601518255948401946001909101908401612eb5565b5085821015612ef25787850151600019600388901b60f8161c191681555b5050505050600190811b01905550565b600060208284031215612f1457600080fd5b5051919050565b8082018082111561094757610947612d6e565b600084516020612f418285838a01612824565b855191840191612f548184848a01612824565b8554920191600090612f6581612ce3565b60018281168015612f7d5760018114612f9257612fbe565b60ff1984168752821515830287019450612fbe565b896000528560002060005b84811015612fb657815489820152908301908701612f9d565b505082870194505b50929a9950505050505050505050565b8181038181111561094757610947612d6e565b600082612ff057612ff0612d9b565b500690565b60208082526032908201527f4552433732313a207472616e7366657220746f206e6f6e20455243373231526560408201527131b2b4bb32b91034b6b83632b6b2b73a32b960711b606082015260800190565b6001600160a01b038581168252841660208201526040810183905260806060820181905260009061307a90830184612848565b9695505050505050565b60006020828403121561309657600080fd5b8151611921816127c1565b634e487b7160e01b600052603160045260246000fdfea264697066735822122029cffd8e51d68bbd7da99716b88cb0b2e8057854669acd149a4e830cdda39cad64736f6c63430008110033",
  "linkReferences": {},
  "deployedLinkReferences": {}
}